{
  "_format": "hh-sol-artifact-1",
  "contractName": "MumbaiFantasy",
  "sourceName": "contracts/MumbaiFantasy.sol",
  "abi": [
    {
      "inputs": [],
      "stateMutability": "nonpayable",
      "type": "constructor"
    },
    {
      "inputs": [
        {
          "internalType": "string",
          "name": "_topPlayer",
          "type": "string"
        }
      ],
      "name": "addTopPlayer",
      "outputs": [],
      "stateMutability": "nonpayable",
      "type": "function"
    },
    {
      "inputs": [
        {
          "internalType": "string",
          "name": "_teamName",
          "type": "string"
        }
      ],
      "name": "buyIn",
      "outputs": [],
      "stateMutability": "payable",
      "type": "function"
    },
    {
      "inputs": [],
      "name": "owner",
      "outputs": [
        {
          "internalType": "address",
          "name": "",
          "type": "address"
        }
      ],
      "stateMutability": "view",
      "type": "function"
    },
    {
      "inputs": [
        {
          "internalType": "uint256",
          "name": "",
          "type": "uint256"
        }
      ],
      "name": "playersThatHaveBought",
      "outputs": [
        {
          "internalType": "string",
          "name": "",
          "type": "string"
        }
      ],
      "stateMutability": "view",
      "type": "function"
    },
    {
      "inputs": [],
      "name": "retrieveWinnings",
      "outputs": [],
      "stateMutability": "nonpayable",
      "type": "function"
    },
    {
      "inputs": [],
      "name": "returnBoughtInPlayers",
      "outputs": [
        {
          "internalType": "string[]",
          "name": "",
          "type": "string[]"
        }
      ],
      "stateMutability": "view",
      "type": "function"
    },
    {
      "inputs": [
        {
          "internalType": "address",
          "name": "",
          "type": "address"
        }
      ],
      "name": "teamOwners",
      "outputs": [
        {
          "internalType": "string",
          "name": "",
          "type": "string"
        }
      ],
      "stateMutability": "view",
      "type": "function"
    },
    {
      "inputs": [],
      "name": "topPlayer",
      "outputs": [
        {
          "internalType": "string",
          "name": "",
          "type": "string"
        }
      ],
      "stateMutability": "view",
      "type": "function"
    },
    {
      "inputs": [],
      "name": "validatedWinnerCount",
      "outputs": [
        {
          "internalType": "uint256",
          "name": "",
          "type": "uint256"
        }
      ],
      "stateMutability": "view",
      "type": "function"
    },
    {
      "inputs": [],
      "name": "verifyWinner",
      "outputs": [],
      "stateMutability": "nonpayable",
      "type": "function"
    }
  ],
  "bytecode": "0x6080604052600060035534801561001557600080fd5b5033600460006101000a81548173ffffffffffffffffffffffffffffffffffffffff021916908373ffffffffffffffffffffffffffffffffffffffff16021790555061101c806100666000396000f3fe6080604052600436106100915760003560e01c8063a951a01311610059578063a951a01314610148578063bb95103214610173578063d3b374f3146101b0578063e8dab114146101c7578063ecad00d61461020457610091565b80631ba0b33e1461009657806328c68541146100ad5780634eacc4ba146100d65780636ebe71f8146100f25780638da5cb5b1461011d575b600080fd5b3480156100a257600080fd5b506100ab61022f565b005b3480156100b957600080fd5b506100d460048036038101906100cf9190610936565b6102a2565b005b6100f060048036038101906100eb9190610936565b6102bc565b005b3480156100fe57600080fd5b50610107610398565b6040516101149190610c16565b60405180910390f35b34801561012957600080fd5b50610132610426565b60405161013f9190610bd9565b60405180910390f35b34801561015457600080fd5b5061015d61044c565b60405161016a9190610c78565b60405180910390f35b34801561017f57600080fd5b5061019a6004803603810190610195919061097f565b610452565b6040516101a79190610c16565b60405180910390f35b3480156101bc57600080fd5b506101c56104fe565b005b3480156101d357600080fd5b506101ee60048036038101906101e99190610909565b610653565b6040516101fb9190610c16565b60405180910390f35b34801561021057600080fd5b506102196106f3565b6040516102269190610bf4565b60405180910390f35b60008060003373ffffffffffffffffffffffffffffffffffffffff1673ffffffffffffffffffffffffffffffffffffffff168152602001908152602001600020805461027a90610e4e565b90501161028657600080fd5b6001600360008282546102999190610d7a565b92505081905550565b80600290805190602001906102b89291906107cc565b5050565b67016345785d8a00003414610306576040517f08c379a00000000000000000000000000000000000000000000000000000000081526004016102fd90610c38565b60405180910390fd5b6001819080600181540180825580915050600190039060005260206000200160009091909190915090805190602001906103419291906107cc565b50806000803373ffffffffffffffffffffffffffffffffffffffff1673ffffffffffffffffffffffffffffffffffffffff16815260200190815260200160002090805190602001906103949291906107cc565b5050565b600280546103a590610e4e565b80601f01602080910402602001604051908101604052809291908181526020018280546103d190610e4e565b801561041e5780601f106103f35761010080835404028352916020019161041e565b820191906000526020600020905b81548152906001019060200180831161040157829003601f168201915b505050505081565b600460009054906101000a900473ffffffffffffffffffffffffffffffffffffffff1681565b60035481565b6001818154811061046257600080fd5b90600052602060002001600091509050805461047d90610e4e565b80601f01602080910402602001604051908101604052809291908181526020018280546104a990610e4e565b80156104f65780601f106104cb576101008083540402835291602001916104f6565b820191906000526020600020905b8154815290600101906020018083116104d957829003601f168201915b505050505081565b60026040516020016105109190610bad565b604051602081830303815290604052805190602001206000803373ffffffffffffffffffffffffffffffffffffffff1673ffffffffffffffffffffffffffffffffffffffff1681526020019081526020016000206040516020016105749190610bad565b604051602081830303815290604052805190602001201461059457600080fd5b600160035410156105a457600080fd5b60003373ffffffffffffffffffffffffffffffffffffffff16476040516105ca90610bc4565b60006040518083038185875af1925050503d8060008114610607576040519150601f19603f3d011682016040523d82523d6000602084013e61060c565b606091505b5050905080610650576040517f08c379a000000000000000000000000000000000000000000000000000000000815260040161064790610c58565b60405180910390fd5b50565b6000602052806000526040600020600091509050805461067290610e4e565b80601f016020809104026020016040519081016040528092919081815260200182805461069e90610e4e565b80156106eb5780601f106106c0576101008083540402835291602001916106eb565b820191906000526020600020905b8154815290600101906020018083116106ce57829003601f168201915b505050505081565b60606001805480602002602001604051908101604052809291908181526020016000905b828210156107c357838290600052602060002001805461073690610e4e565b80601f016020809104026020016040519081016040528092919081815260200182805461076290610e4e565b80156107af5780601f10610784576101008083540402835291602001916107af565b820191906000526020600020905b81548152906001019060200180831161079257829003601f168201915b505050505081526020019060010190610717565b50505050905090565b8280546107d890610e4e565b90600052602060002090601f0160209004810192826107fa5760008555610841565b82601f1061081357805160ff1916838001178555610841565b82800160010185558215610841579182015b82811115610840578251825591602001919060010190610825565b5b50905061084e9190610852565b5090565b5b8082111561086b576000816000905550600101610853565b5090565b600061088261087d84610cb8565b610c93565b90508281526020810184848401111561089e5761089d610f43565b5b6108a9848285610e0c565b509392505050565b6000813590506108c081610fb8565b92915050565b600082601f8301126108db576108da610f3e565b5b81356108eb84826020860161086f565b91505092915050565b60008135905061090381610fcf565b92915050565b60006020828403121561091f5761091e610f4d565b5b600061092d848285016108b1565b91505092915050565b60006020828403121561094c5761094b610f4d565b5b600082013567ffffffffffffffff81111561096a57610969610f48565b5b610976848285016108c6565b91505092915050565b60006020828403121561099557610994610f4d565b5b60006109a3848285016108f4565b91505092915050565b60006109b88383610a44565b905092915050565b6109c981610dd0565b82525050565b60006109da82610d0e565b6109e48185610d31565b9350836020820285016109f685610ce9565b8060005b85811015610a325784840389528151610a1385826109ac565b9450610a1e83610d24565b925060208a019950506001810190506109fa565b50829750879550505050505092915050565b6000610a4f82610d19565b610a598185610d4d565b9350610a69818560208601610e1b565b610a7281610f52565b840191505092915050565b6000610a8882610d19565b610a928185610d5e565b9350610aa2818560208601610e1b565b610aab81610f52565b840191505092915050565b60008154610ac381610e4e565b610acd8186610d6f565b94506001821660008114610ae85760018114610af957610b2c565b60ff19831686528186019350610b2c565b610b0285610cf9565b60005b83811015610b2457815481890152600182019150602081019050610b05565b838801955050505b50505092915050565b6000610b42601283610d5e565b9150610b4d82610f63565b602082019050919050565b6000610b65600083610d42565b9150610b7082610f8c565b600082019050919050565b6000610b88601483610d5e565b9150610b9382610f8f565b602082019050919050565b610ba781610e02565b82525050565b6000610bb98284610ab6565b915081905092915050565b6000610bcf82610b58565b9150819050919050565b6000602082019050610bee60008301846109c0565b92915050565b60006020820190508181036000830152610c0e81846109cf565b905092915050565b60006020820190508181036000830152610c308184610a7d565b905092915050565b60006020820190508181036000830152610c5181610b35565b9050919050565b60006020820190508181036000830152610c7181610b7b565b9050919050565b6000602082019050610c8d6000830184610b9e565b92915050565b6000610c9d610cae565b9050610ca98282610e80565b919050565b6000604051905090565b600067ffffffffffffffff821115610cd357610cd2610f0f565b5b610cdc82610f52565b9050602081019050919050565b6000819050602082019050919050565b60008190508160005260206000209050919050565b600081519050919050565b600081519050919050565b6000602082019050919050565b600082825260208201905092915050565b600081905092915050565b600082825260208201905092915050565b600082825260208201905092915050565b600081905092915050565b6000610d8582610e02565b9150610d9083610e02565b9250827fffffffffffffffffffffffffffffffffffffffffffffffffffffffffffffffff03821115610dc557610dc4610eb1565b5b828201905092915050565b6000610ddb82610de2565b9050919050565b600073ffffffffffffffffffffffffffffffffffffffff82169050919050565b6000819050919050565b82818337600083830152505050565b60005b83811015610e39578082015181840152602081019050610e1e565b83811115610e48576000848401525b50505050565b60006002820490506001821680610e6657607f821691505b60208210811415610e7a57610e79610ee0565b5b50919050565b610e8982610f52565b810181811067ffffffffffffffff82111715610ea857610ea7610f0f565b5b80604052505050565b7f4e487b7100000000000000000000000000000000000000000000000000000000600052601160045260246000fd5b7f4e487b7100000000000000000000000000000000000000000000000000000000600052602260045260246000fd5b7f4e487b7100000000000000000000000000000000000000000000000000000000600052604160045260246000fd5b600080fd5b600080fd5b600080fd5b600080fd5b6000601f19601f8301169050919050565b7f42757920696e206973203530204d415449430000000000000000000000000000600082015250565b50565b7f4661696c656420746f2073656e64204d41544943000000000000000000000000600082015250565b610fc181610dd0565b8114610fcc57600080fd5b50565b610fd881610e02565b8114610fe357600080fd5b5056fea2646970667358221220bb20c0ab0cb4af891de940eb196e09cfecdcd8e7175640c6e69a506dd924ea6a64736f6c63430008070033",
  "linkReferences": {},
  "deployedLinkReferences": {}
}