{
  "_format": "hh-sol-artifact-1",
  "contractName": "MumbaiFantasy",
  "sourceName": "contracts/MumbaiFantasy.sol",
  "abi": [
    {
      "inputs": [],
      "stateMutability": "nonpayable",
      "type": "constructor"
    },
    {
      "anonymous": false,
      "inputs": [
        {
          "indexed": true,
          "internalType": "bytes32",
          "name": "id",
          "type": "bytes32"
        }
      ],
      "name": "ChainlinkCancelled",
      "type": "event"
    },
    {
      "anonymous": false,
      "inputs": [
        {
          "indexed": true,
          "internalType": "bytes32",
          "name": "id",
          "type": "bytes32"
        }
      ],
      "name": "ChainlinkFulfilled",
      "type": "event"
    },
    {
      "anonymous": false,
      "inputs": [
        {
          "indexed": true,
          "internalType": "bytes32",
          "name": "id",
          "type": "bytes32"
        }
      ],
      "name": "ChainlinkRequested",
      "type": "event"
    },
    {
      "anonymous": false,
      "inputs": [
        {
          "indexed": true,
          "internalType": "address",
          "name": "from",
          "type": "address"
        },
        {
          "indexed": true,
          "internalType": "address",
          "name": "to",
          "type": "address"
        }
      ],
      "name": "OwnershipTransferRequested",
      "type": "event"
    },
    {
      "anonymous": false,
      "inputs": [
        {
          "indexed": true,
          "internalType": "address",
          "name": "from",
          "type": "address"
        },
        {
          "indexed": true,
          "internalType": "address",
          "name": "to",
          "type": "address"
        }
      ],
      "name": "OwnershipTransferred",
      "type": "event"
    },
    {
      "anonymous": false,
      "inputs": [
        {
          "indexed": true,
          "internalType": "bytes32",
          "name": "requestId",
          "type": "bytes32"
        },
        {
          "indexed": false,
          "internalType": "string",
          "name": "id",
          "type": "string"
        }
      ],
      "name": "RequestFirstId",
      "type": "event"
    },
    {
      "inputs": [],
      "name": "acceptOwnership",
      "outputs": [],
      "stateMutability": "nonpayable",
      "type": "function"
    },
    {
      "inputs": [],
      "name": "breakTheGlass",
      "outputs": [],
      "stateMutability": "nonpayable",
      "type": "function"
    },
    {
      "inputs": [
        {
          "internalType": "string",
          "name": "_teamName",
          "type": "string"
        }
      ],
      "name": "buyIn",
      "outputs": [],
      "stateMutability": "payable",
      "type": "function"
    },
    {
      "inputs": [
        {
          "internalType": "bytes32",
          "name": "_requestId",
          "type": "bytes32"
        },
        {
          "internalType": "string",
          "name": "_id",
          "type": "string"
        }
      ],
      "name": "fulfill",
      "outputs": [],
      "stateMutability": "nonpayable",
      "type": "function"
    },
    {
      "inputs": [],
      "name": "id",
      "outputs": [
        {
          "internalType": "string",
          "name": "",
          "type": "string"
        }
      ],
      "stateMutability": "view",
      "type": "function"
    },
    {
      "inputs": [],
      "name": "owner",
      "outputs": [
        {
          "internalType": "address",
          "name": "",
          "type": "address"
        }
      ],
      "stateMutability": "view",
      "type": "function"
    },
    {
      "inputs": [
        {
          "internalType": "uint256",
          "name": "",
          "type": "uint256"
        }
      ],
      "name": "playersThatHaveBought",
      "outputs": [
        {
          "internalType": "string",
          "name": "",
          "type": "string"
        }
      ],
      "stateMutability": "view",
      "type": "function"
    },
    {
      "inputs": [],
      "name": "requestFirstId",
      "outputs": [
        {
          "internalType": "bytes32",
          "name": "requestId",
          "type": "bytes32"
        }
      ],
      "stateMutability": "nonpayable",
      "type": "function"
    },
    {
      "inputs": [],
      "name": "retrieveWinnings",
      "outputs": [],
      "stateMutability": "nonpayable",
      "type": "function"
    },
    {
      "inputs": [],
      "name": "returnBoughtInPlayers",
      "outputs": [
        {
          "internalType": "string[]",
          "name": "",
          "type": "string[]"
        }
      ],
      "stateMutability": "view",
      "type": "function"
    },
    {
      "inputs": [
        {
          "internalType": "address",
          "name": "",
          "type": "address"
        }
      ],
      "name": "teamOwners",
      "outputs": [
        {
          "internalType": "string",
          "name": "",
          "type": "string"
        }
      ],
      "stateMutability": "view",
      "type": "function"
    },
    {
      "inputs": [],
      "name": "topPlayer",
      "outputs": [
        {
          "internalType": "string",
          "name": "",
          "type": "string"
        }
      ],
      "stateMutability": "view",
      "type": "function"
    },
    {
      "inputs": [
        {
          "internalType": "address",
          "name": "to",
          "type": "address"
        }
      ],
      "name": "transferOwnership",
      "outputs": [],
      "stateMutability": "nonpayable",
      "type": "function"
    },
    {
      "inputs": [],
      "name": "validatedWinnerCount",
      "outputs": [
        {
          "internalType": "uint256",
          "name": "",
          "type": "uint256"
        }
      ],
      "stateMutability": "view",
      "type": "function"
    },
    {
      "inputs": [],
      "name": "verifyWinner",
      "outputs": [],
      "stateMutability": "nonpayable",
      "type": "function"
    },
    {
      "inputs": [],
      "name": "withdrawLink",
      "outputs": [],
      "stateMutability": "nonpayable",
      "type": "function"
    }
  ],
  "bytecode": "0x608060405260016004556000600b553480156200001b57600080fd5b50338060008073ffffffffffffffffffffffffffffffffffffffff168273ffffffffffffffffffffffffffffffffffffffff16141562000092576040517f08c379a00000000000000000000000000000000000000000000000000000000081526004016200008990620003c7565b60405180910390fd5b81600660006101000a81548173ffffffffffffffffffffffffffffffffffffffff021916908373ffffffffffffffffffffffffffffffffffffffff160217905550600073ffffffffffffffffffffffffffffffffffffffff168173ffffffffffffffffffffffffffffffffffffffff16146200011a576200011981620001bf60201b60201c565b5b5050506200014273326c977e6efc84e512bb9c30f76e30c160ed06fb620002f160201b60201c565b620001677340193c8518bb267228fc409a613bdbd8ec5a97b36200033560201b60201c565b7f3764383061363338366566353433613361626235323831376636373037653362600d81905550600a670de0b6b3a76400006001620001a7919062000454565b620001b391906200041c565b600e819055506200056f565b3373ffffffffffffffffffffffffffffffffffffffff168173ffffffffffffffffffffffffffffffffffffffff16141562000231576040517f08c379a00000000000000000000000000000000000000000000000000000000081526004016200022890620003e9565b60405180910390fd5b80600760006101000a81548173ffffffffffffffffffffffffffffffffffffffff021916908373ffffffffffffffffffffffffffffffffffffffff1602179055508073ffffffffffffffffffffffffffffffffffffffff16600660009054906101000a900473ffffffffffffffffffffffffffffffffffffffff1673ffffffffffffffffffffffffffffffffffffffff167fed8889f560326eb138920d842192f0eb3dd22b4f139c87a2c57538e05bae127860405160405180910390a350565b80600260006101000a81548173ffffffffffffffffffffffffffffffffffffffff021916908373ffffffffffffffffffffffffffffffffffffffff16021790555050565b80600360006101000a81548173ffffffffffffffffffffffffffffffffffffffff021916908373ffffffffffffffffffffffffffffffffffffffff16021790555050565b6000620003886018836200040b565b915062000395826200051d565b602082019050919050565b6000620003af6017836200040b565b9150620003bc8262000546565b602082019050919050565b60006020820190508181036000830152620003e28162000379565b9050919050565b600060208201905081810360008301526200040481620003a0565b9050919050565b600082825260208201905092915050565b60006200042982620004b5565b91506200043683620004b5565b925082620004495762000448620004ee565b5b828204905092915050565b60006200046182620004b5565b91506200046e83620004b5565b9250817fffffffffffffffffffffffffffffffffffffffffffffffffffffffffffffffff0483118215151615620004aa57620004a9620004bf565b5b828202905092915050565b6000819050919050565b7f4e487b7100000000000000000000000000000000000000000000000000000000600052601160045260246000fd5b7f4e487b7100000000000000000000000000000000000000000000000000000000600052601260045260246000fd5b7f43616e6e6f7420736574206f776e657220746f207a65726f0000000000000000600082015250565b7f43616e6e6f74207472616e7366657220746f2073656c66000000000000000000600082015250565b612ca4806200057f6000396000f3fe6080604052600436106100f35760003560e01c8063a951a0131161008a578063e1b0a7ae11610059578063e1b0a7ae146102ad578063e8dab114146102c4578063ecad00d614610301578063f2fde38b1461032c576100f3565b8063a951a01314610203578063af640d0f1461022e578063bb95103214610259578063d3b374f314610296576100f3565b80636ebe71f8116100c65780636ebe71f81461017f57806379ba5097146101aa5780638da5cb5b146101c15780638dc654a2146101ec576100f3565b806309323a6a146100f85780631ba0b33e14610123578063374419961461013a5780634eacc4ba14610163575b600080fd5b34801561010457600080fd5b5061010d610355565b60405161011a9190612240565b60405180910390f35b34801561012f57600080fd5b50610138610461565b005b34801561014657600080fd5b50610161600480360381019061015c9190611c45565b6104d5565b005b61017d60048036038101906101789190611ca1565b610645565b005b34801561018b57600080fd5b50610194610722565b6040516101a1919061225b565b60405180910390f35b3480156101b657600080fd5b506101bf6107b0565b005b3480156101cd57600080fd5b506101d6610947565b6040516101e39190612117565b60405180910390f35b3480156101f857600080fd5b50610201610971565b005b34801561020f57600080fd5b50610218610adc565b604051610225919061239d565b60405180910390f35b34801561023a57600080fd5b50610243610ae2565b604051610250919061225b565b60405180910390f35b34801561026557600080fd5b50610280600480360381019061027b9190611cea565b610b70565b60405161028d919061225b565b60405180910390f35b3480156102a257600080fd5b506102ab610c1c565b005b3480156102b957600080fd5b506102c2610d72565b005b3480156102d057600080fd5b506102eb60048036038101906102e69190611beb565b610e29565b6040516102f8919061225b565b60405180910390f35b34801561030d57600080fd5b50610316610ec9565b604051610323919061221e565b60405180910390f35b34801561033857600080fd5b50610353600480360381019061034e9190611beb565b610fa2565b005b60008061036c600d5430633744199660e01b610fb6565b90506103d06040518060400160405280600381526020017f67657400000000000000000000000000000000000000000000000000000000008152506040518060a0016040528060698152602001612c066069913983610fe79092919063ffffffff16565b61044f6040518060400160405280600481526020017f70617468000000000000000000000000000000000000000000000000000000008152506040518060400160405280601e81526020017f7374616e64696e67732c726573756c74732c302c656e7472795f6e616d65000081525083610fe79092919063ffffffff16565b61045b81600e5461101a565b91505090565b6000600860003373ffffffffffffffffffffffffffffffffffffffff1673ffffffffffffffffffffffffffffffffffffffff16815260200190815260200160002080546104ad90612806565b9050116104b957600080fd5b6001600b60008282546104cc91906124bb565b92505081905550565b816005600082815260200190815260200160002060009054906101000a900473ffffffffffffffffffffffffffffffffffffffff1673ffffffffffffffffffffffffffffffffffffffff163373ffffffffffffffffffffffffffffffffffffffff1614610577576040517f08c379a000000000000000000000000000000000000000000000000000000000815260040161056e9061235d565b60405180910390fd5b6005600082815260200190815260200160002060006101000a81549073ffffffffffffffffffffffffffffffffffffffff0219169055807f7cc135e0cebb02c3480ae5d74d377283180a2601f8f644edf7987b009316c63a60405160405180910390a2827f5b72487f892feba565865a27f191da8fb1e852651bd966bfb0a41fc272c54aea8360405161060a919061225b565b60405180910390a281600c90805190602001906106289291906119e8565b5081600a908051906020019061063f9291906119e8565b50505050565b67016345785d8a0000341461068f576040517f08c379a0000000000000000000000000000000000000000000000000000000008152600401610686906122dd565b60405180910390fd5b6009819080600181540180825580915050600190039060005260206000200160009091909190915090805190602001906106ca9291906119e8565b5080600860003373ffffffffffffffffffffffffffffffffffffffff1673ffffffffffffffffffffffffffffffffffffffff168152602001908152602001600020908051906020019061071e9291906119e8565b5050565b600a805461072f90612806565b80601f016020809104026020016040519081016040528092919081815260200182805461075b90612806565b80156107a85780601f1061077d576101008083540402835291602001916107a8565b820191906000526020600020905b81548152906001019060200180831161078b57829003601f168201915b505050505081565b600760009054906101000a900473ffffffffffffffffffffffffffffffffffffffff1673ffffffffffffffffffffffffffffffffffffffff163373ffffffffffffffffffffffffffffffffffffffff1614610840576040517f08c379a00000000000000000000000000000000000000000000000000000000081526004016108379061227d565b60405180910390fd5b6000600660009054906101000a900473ffffffffffffffffffffffffffffffffffffffff16905033600660006101000a81548173ffffffffffffffffffffffffffffffffffffffff021916908373ffffffffffffffffffffffffffffffffffffffff1602179055506000600760006101000a81548173ffffffffffffffffffffffffffffffffffffffff021916908373ffffffffffffffffffffffffffffffffffffffff1602179055503373ffffffffffffffffffffffffffffffffffffffff168173ffffffffffffffffffffffffffffffffffffffff167f8be0079c531659141344cd1fd0a4f28419497f9722a3daafe3b4186f6b6457e060405160405180910390a350565b6000600660009054906101000a900473ffffffffffffffffffffffffffffffffffffffff16905090565b610979611051565b60006109836110e3565b90508073ffffffffffffffffffffffffffffffffffffffff1663a9059cbb338373ffffffffffffffffffffffffffffffffffffffff166370a08231306040518263ffffffff1660e01b81526004016109db9190612117565b60206040518083038186803b1580156109f357600080fd5b505afa158015610a07573d6000803e3d6000fd5b505050506040513d601f19601f82011682018060405250810190610a2b9190611d17565b6040518363ffffffff1660e01b8152600401610a48929190612132565b602060405180830381600087803b158015610a6257600080fd5b505af1158015610a76573d6000803e3d6000fd5b505050506040513d601f19601f82011682018060405250810190610a9a9190611c18565b610ad9576040517f08c379a0000000000000000000000000000000000000000000000000000000008152600401610ad09061231d565b60405180910390fd5b50565b600b5481565b600c8054610aef90612806565b80601f0160208091040260200160405190810160405280929190818152602001828054610b1b90612806565b8015610b685780601f10610b3d57610100808354040283529160200191610b68565b820191906000526020600020905b815481529060010190602001808311610b4b57829003601f168201915b505050505081565b60098181548110610b8057600080fd5b906000526020600020016000915090508054610b9b90612806565b80601f0160208091040260200160405190810160405280929190818152602001828054610bc790612806565b8015610c145780601f10610be957610100808354040283529160200191610c14565b820191906000526020600020905b815481529060010190602001808311610bf757829003601f168201915b505050505081565b600a604051602001610c2e91906120eb565b60405160208183030381529060405280519060200120600860003373ffffffffffffffffffffffffffffffffffffffff1673ffffffffffffffffffffffffffffffffffffffff168152602001908152602001600020604051602001610c9391906120eb565b6040516020818303038152906040528051906020012014610cb357600080fd5b6003600b541015610cc357600080fd5b60003373ffffffffffffffffffffffffffffffffffffffff1647604051610ce990612102565b60006040518083038185875af1925050503d8060008114610d26576040519150601f19603f3d011682016040523d82523d6000602084013e610d2b565b606091505b5050905080610d6f576040517f08c379a0000000000000000000000000000000000000000000000000000000008152600401610d669061237d565b60405180910390fd5b50565b610d7a611051565b60003373ffffffffffffffffffffffffffffffffffffffff1647604051610da090612102565b60006040518083038185875af1925050503d8060008114610ddd576040519150601f19603f3d011682016040523d82523d6000602084013e610de2565b606091505b5050905080610e26576040517f08c379a0000000000000000000000000000000000000000000000000000000008152600401610e1d906122fd565b60405180910390fd5b50565b60086020528060005260406000206000915090508054610e4890612806565b80601f0160208091040260200160405190810160405280929190818152602001828054610e7490612806565b8015610ec15780601f10610e9657610100808354040283529160200191610ec1565b820191906000526020600020905b815481529060010190602001808311610ea457829003601f168201915b505050505081565b60606009805480602002602001604051908101604052809291908181526020016000905b82821015610f99578382906000526020600020018054610f0c90612806565b80601f0160208091040260200160405190810160405280929190818152602001828054610f3890612806565b8015610f855780601f10610f5a57610100808354040283529160200191610f85565b820191906000526020600020905b815481529060010190602001808311610f6857829003601f168201915b505050505081526020019060010190610eed565b50505050905090565b610faa611051565b610fb38161110d565b50565b610fbe611a6e565b610fc6611a6e565b610fdd8585858461123c909392919063ffffffff16565b9150509392505050565b610ffe8284608001516112ec90919063ffffffff16565b6110158184608001516112ec90919063ffffffff16565b505050565b6000611049600360009054906101000a900473ffffffffffffffffffffffffffffffffffffffff168484611311565b905092915050565b600660009054906101000a900473ffffffffffffffffffffffffffffffffffffffff1673ffffffffffffffffffffffffffffffffffffffff163373ffffffffffffffffffffffffffffffffffffffff16146110e1576040517f08c379a00000000000000000000000000000000000000000000000000000000081526004016110d8906122bd565b60405180910390fd5b565b6000600260009054906101000a900473ffffffffffffffffffffffffffffffffffffffff16905090565b3373ffffffffffffffffffffffffffffffffffffffff168173ffffffffffffffffffffffffffffffffffffffff16141561117c576040517f08c379a00000000000000000000000000000000000000000000000000000000081526004016111739061233d565b60405180910390fd5b80600760006101000a81548173ffffffffffffffffffffffffffffffffffffffff021916908373ffffffffffffffffffffffffffffffffffffffff1602179055508073ffffffffffffffffffffffffffffffffffffffff16600660009054906101000a900473ffffffffffffffffffffffffffffffffffffffff1673ffffffffffffffffffffffffffffffffffffffff167fed8889f560326eb138920d842192f0eb3dd22b4f139c87a2c57538e05bae127860405160405180910390a350565b611244611a6e565b61125485608001516101006113dd565b508385600001818152505082856020019073ffffffffffffffffffffffffffffffffffffffff16908173ffffffffffffffffffffffffffffffffffffffff16815250508185604001907bffffffffffffffffffffffffffffffffffffffffffffffffffffffff191690817bffffffffffffffffffffffffffffffffffffffffffffffffffffffff191681525050849050949350505050565b6112f98260038351611447565b61130c81836115cc90919063ffffffff16565b505050565b600080600454905060018161132691906124bb565b6004819055506000634042994660e01b60008087600001513089604001518760018c608001516000015160405160240161136798979695949392919061215b565b604051602081830303815290604052907bffffffffffffffffffffffffffffffffffffffffffffffffffffffff19166020820180517bffffffffffffffffffffffffffffffffffffffffffffffffffffffff838183161783525050505090506113d2868386846115ee565b925050509392505050565b6113e5611adb565b60006020836113f49190612897565b14611420576020826114069190612897565b602061141291906126dc565b8261141d91906124bb565b91505b81836020018181525050604051808452600081528281016020016040525082905092915050565b60178167ffffffffffffffff161161147e576114788160058460ff16901b60ff16178461179290919063ffffffff16565b506115c7565b60ff8167ffffffffffffffff16116114d4576114ad601860058460ff16901b178461179290919063ffffffff16565b506114ce8167ffffffffffffffff166001856117b29092919063ffffffff16565b506115c6565b61ffff8167ffffffffffffffff161161152b57611504601960058460ff16901b178461179290919063ffffffff16565b506115258167ffffffffffffffff166002856117b29092919063ffffffff16565b506115c5565b63ffffffff8167ffffffffffffffff16116115845761155d601a60058460ff16901b178461179290919063ffffffff16565b5061157e8167ffffffffffffffff166004856117b29092919063ffffffff16565b506115c4565b6115a1601b60058460ff16901b178461179290919063ffffffff16565b506115c28167ffffffffffffffff166008856117b29092919063ffffffff16565b505b5b5b5b505050565b6115d4611adb565b6115e6838460000151518485516117d4565b905092915050565b600030846040516020016116039291906120bf565b604051602081830303815290604052805190602001209050846005600083815260200190815260200160002060006101000a81548173ffffffffffffffffffffffffffffffffffffffff021916908373ffffffffffffffffffffffffffffffffffffffff160217905550807fb5e6e01e79f91267dc17b4e6314d5d4d03593d2ceee0fbb452b750bd70ea5af960405160405180910390a2600260009054906101000a900473ffffffffffffffffffffffffffffffffffffffff1673ffffffffffffffffffffffffffffffffffffffff16634000aea08685856040518463ffffffff1660e01b81526004016116f9939291906121e0565b602060405180830381600087803b15801561171357600080fd5b505af1158015611727573d6000803e3d6000fd5b505050506040513d601f19601f8201168201806040525081019061174b9190611c18565b61178a576040517f08c379a00000000000000000000000000000000000000000000000000000000081526004016117819061229d565b60405180910390fd5b949350505050565b61179a611adb565b6117aa83846000015151846118c3565b905092915050565b6117ba611adb565b6117cb84856000015151858561191a565b90509392505050565b6117dc611adb565b82518211156117ea57600080fd5b846020015182856117fb91906124bb565b11156118305761182f8560026118208860200151888761181b91906124bb565b6119a8565b61182a9190612682565b6119c4565b5b60008086518051876020830101935080888701111561184f5787860182525b60208701925050505b60208410611896578051825260208261187191906124bb565b915060208161188091906124bb565b905060208461188f91906126dc565b9350611858565b60006001856020036101000a03905080198251168184511681811785525050508692505050949350505050565b6118cb611adb565b836020015183106118f1576118f084600286602001516118eb9190612682565b6119c4565b5b835180516020858301018481538186141561190d576001820183525b5050508390509392505050565b611922611adb565b8460200151848361193391906124bb565b111561195b5761195a856002868561194b91906124bb565b6119559190612682565b6119c4565b5b600060018361010061196d9190612564565b61197791906126dc565b9050855183868201018583198251161781528151858801111561199a5784870182525b505085915050949350505050565b6000818311156119ba578290506119be565b8190505b92915050565b6000826000015190506119d783836113dd565b506119e283826115cc565b50505050565b8280546119f490612806565b90600052602060002090601f016020900481019282611a165760008555611a5d565b82601f10611a2f57805160ff1916838001178555611a5d565b82800160010185558215611a5d579182015b82811115611a5c578251825591602001919060010190611a41565b5b509050611a6a9190611af5565b5090565b6040518060a0016040528060008019168152602001600073ffffffffffffffffffffffffffffffffffffffff16815260200160007bffffffffffffffffffffffffffffffffffffffffffffffffffffffff1916815260200160008152602001611ad5611adb565b81525090565b604051806040016040528060608152602001600081525090565b5b80821115611b0e576000816000905550600101611af6565b5090565b6000611b25611b20846123dd565b6123b8565b905082815260208101848484011115611b4157611b40612989565b5b611b4c8482856127c4565b509392505050565b600081359050611b6381612ba9565b92915050565b600081519050611b7881612bc0565b92915050565b600081359050611b8d81612bd7565b92915050565b600082601f830112611ba857611ba7612984565b5b8135611bb8848260208601611b12565b91505092915050565b600081359050611bd081612bee565b92915050565b600081519050611be581612bee565b92915050565b600060208284031215611c0157611c00612993565b5b6000611c0f84828501611b54565b91505092915050565b600060208284031215611c2e57611c2d612993565b5b6000611c3c84828501611b69565b91505092915050565b60008060408385031215611c5c57611c5b612993565b5b6000611c6a85828601611b7e565b925050602083013567ffffffffffffffff811115611c8b57611c8a61298e565b5b611c9785828601611b93565b9150509250929050565b600060208284031215611cb757611cb6612993565b5b600082013567ffffffffffffffff811115611cd557611cd461298e565b5b611ce184828501611b93565b91505092915050565b600060208284031215611d0057611cff612993565b5b6000611d0e84828501611bc1565b91505092915050565b600060208284031215611d2d57611d2c612993565b5b6000611d3b84828501611bd6565b91505092915050565b6000611d508383611e4a565b905092915050565b611d6181612710565b82525050565b6000611d7282612433565b611d7c8185612461565b935083602082028501611d8e8561240e565b8060005b85811015611dca5784840389528151611dab8582611d44565b9450611db683612454565b925060208a01995050600181019050611d92565b50829750879550505050505092915050565b611de58161272e565b82525050565b611df481612738565b82525050565b6000611e058261243e565b611e0f8185612472565b9350611e1f8185602086016127d3565b611e2881612998565b840191505092915050565b611e44611e3f8261278e565b612869565b82525050565b6000611e5582612449565b611e5f818561248e565b9350611e6f8185602086016127d3565b611e7881612998565b840191505092915050565b6000611e8e82612449565b611e98818561249f565b9350611ea88185602086016127d3565b611eb181612998565b840191505092915050565b60008154611ec981612806565b611ed381866124b0565b94506001821660008114611eee5760018114611eff57611f32565b60ff19831686528186019350611f32565b611f088561241e565b60005b83811015611f2a57815481890152600182019150602081019050611f0b565b838801955050505b50505092915050565b6000611f4860168361249f565b9150611f53826129c3565b602082019050919050565b6000611f6b60238361249f565b9150611f76826129ec565b604082019050919050565b6000611f8e60168361249f565b9150611f9982612a3b565b602082019050919050565b6000611fb160128361249f565b9150611fbc82612a64565b602082019050919050565b6000611fd460278361249f565b9150611fdf82612a8d565b604082019050919050565b6000611ff760128361249f565b915061200282612adc565b602082019050919050565b600061201a600083612483565b915061202582612b05565b600082019050919050565b600061203d60178361249f565b915061204882612b08565b602082019050919050565b600061206060288361249f565b915061206b82612b31565b604082019050919050565b600061208360148361249f565b915061208e82612b80565b602082019050919050565b6120a281612784565b82525050565b6120b96120b482612784565b61288d565b82525050565b60006120cb8285611e33565b6014820191506120db82846120a8565b6020820191508190509392505050565b60006120f78284611ebc565b915081905092915050565b600061210d8261200d565b9150819050919050565b600060208201905061212c6000830184611d58565b92915050565b60006040820190506121476000830185611d58565b6121546020830184612099565b9392505050565b600061010082019050612171600083018b611d58565b61217e602083018a612099565b61218b6040830189611ddc565b6121986060830188611d58565b6121a56080830187611deb565b6121b260a0830186612099565b6121bf60c0830185612099565b81810360e08301526121d18184611dfa565b90509998505050505050505050565b60006060820190506121f56000830186611d58565b6122026020830185612099565b81810360408301526122148184611dfa565b9050949350505050565b600060208201905081810360008301526122388184611d67565b905092915050565b60006020820190506122556000830184611ddc565b92915050565b600060208201905081810360008301526122758184611e83565b905092915050565b6000602082019050818103600083015261229681611f3b565b9050919050565b600060208201905081810360008301526122b681611f5e565b9050919050565b600060208201905081810360008301526122d681611f81565b9050919050565b600060208201905081810360008301526122f681611fa4565b9050919050565b6000602082019050818103600083015261231681611fc7565b9050919050565b6000602082019050818103600083015261233681611fea565b9050919050565b6000602082019050818103600083015261235681612030565b9050919050565b6000602082019050818103600083015261237681612053565b9050919050565b6000602082019050818103600083015261239681612076565b9050919050565b60006020820190506123b26000830184612099565b92915050565b60006123c26123d3565b90506123ce8282612838565b919050565b6000604051905090565b600067ffffffffffffffff8211156123f8576123f7612955565b5b61240182612998565b9050602081019050919050565b6000819050602082019050919050565b60008190508160005260206000209050919050565b600081519050919050565b600081519050919050565b600081519050919050565b6000602082019050919050565b600082825260208201905092915050565b600082825260208201905092915050565b600081905092915050565b600082825260208201905092915050565b600082825260208201905092915050565b600081905092915050565b60006124c682612784565b91506124d183612784565b9250827fffffffffffffffffffffffffffffffffffffffffffffffffffffffffffffffff03821115612506576125056128c8565b5b828201905092915050565b6000808291508390505b600185111561255b57808604811115612537576125366128c8565b5b60018516156125465780820291505b8081029050612554856129b6565b945061251b565b94509492505050565b600061256f82612784565b915061257a83612784565b92506125a77fffffffffffffffffffffffffffffffffffffffffffffffffffffffffffffffff84846125af565b905092915050565b6000826125bf576001905061267b565b816125cd576000905061267b565b81600181146125e357600281146125ed5761261c565b600191505061267b565b60ff8411156125ff576125fe6128c8565b5b8360020a915084821115612616576126156128c8565b5b5061267b565b5060208310610133831016604e8410600b84101617156126515782820a90508381111561264c5761264b6128c8565b5b61267b565b61265e8484846001612511565b92509050818404811115612675576126746128c8565b5b81810290505b9392505050565b600061268d82612784565b915061269883612784565b9250817fffffffffffffffffffffffffffffffffffffffffffffffffffffffffffffffff04831182151516156126d1576126d06128c8565b5b828202905092915050565b60006126e782612784565b91506126f283612784565b925082821015612705576127046128c8565b5b828203905092915050565b600061271b82612764565b9050919050565b60008115159050919050565b6000819050919050565b60007fffffffff0000000000000000000000000000000000000000000000000000000082169050919050565b600073ffffffffffffffffffffffffffffffffffffffff82169050919050565b6000819050919050565b6000612799826127a0565b9050919050565b60006127ab826127b2565b9050919050565b60006127bd82612764565b9050919050565b82818337600083830152505050565b60005b838110156127f15780820151818401526020810190506127d6565b83811115612800576000848401525b50505050565b6000600282049050600182168061281e57607f821691505b6020821081141561283257612831612926565b5b50919050565b61284182612998565b810181811067ffffffffffffffff821117156128605761285f612955565b5b80604052505050565b60006128748261287b565b9050919050565b6000612886826129a9565b9050919050565b6000819050919050565b60006128a282612784565b91506128ad83612784565b9250826128bd576128bc6128f7565b5b828206905092915050565b7f4e487b7100000000000000000000000000000000000000000000000000000000600052601160045260246000fd5b7f4e487b7100000000000000000000000000000000000000000000000000000000600052601260045260246000fd5b7f4e487b7100000000000000000000000000000000000000000000000000000000600052602260045260246000fd5b7f4e487b7100000000000000000000000000000000000000000000000000000000600052604160045260246000fd5b600080fd5b600080fd5b600080fd5b600080fd5b6000601f19601f8301169050919050565b60008160601b9050919050565b60008160011c9050919050565b7f4d7573742062652070726f706f736564206f776e657200000000000000000000600082015250565b7f756e61626c6520746f207472616e73666572416e6443616c6c20746f206f726160008201527f636c650000000000000000000000000000000000000000000000000000000000602082015250565b7f4f6e6c792063616c6c61626c65206279206f776e657200000000000000000000600082015250565b7f42757920696e206973203530204d415449430000000000000000000000000000600082015250565b7f596f7520617265206e6f7420746865206f776e6572206f66207468697320636f60008201527f6e74726163742100000000000000000000000000000000000000000000000000602082015250565b7f556e61626c6520746f207472616e736665720000000000000000000000000000600082015250565b50565b7f43616e6e6f74207472616e7366657220746f2073656c66000000000000000000600082015250565b7f536f75726365206d75737420626520746865206f7261636c65206f662074686560008201527f2072657175657374000000000000000000000000000000000000000000000000602082015250565b7f4661696c656420746f2073656e64204d41544943000000000000000000000000600082015250565b612bb281612710565b8114612bbd57600080fd5b50565b612bc981612722565b8114612bd457600080fd5b50565b612be08161272e565b8114612beb57600080fd5b50565b612bf781612784565b8114612c0257600080fd5b5056fe68747470733a2f2f6170692e616c6c6f726967696e732e77696e2f7261773f75726c3d68747470733a2f2f66616e746173792e7072656d6965726c65616775652e636f6d2f6170692f6c6561677565732d636c61737369632f3538333332362f7374616e64696e6773a264697066735822122043eb531f9881a8ebf1763cbb3bd4cb8273781c9780f17937d3d36117509d37ba64736f6c63430008070033",
  "linkReferences": {},
  "deployedLinkReferences": {}
}