{
  "_format": "hh-sol-artifact-1",
  "contractName": "MumbaiFantasy",
  "sourceName": "contracts/MumbaiFantasy.sol",
  "abi": [
    {
      "inputs": [],
      "stateMutability": "nonpayable",
      "type": "constructor"
    },
    {
      "anonymous": false,
      "inputs": [
        {
          "indexed": true,
          "internalType": "bytes32",
          "name": "id",
          "type": "bytes32"
        }
      ],
      "name": "ChainlinkCancelled",
      "type": "event"
    },
    {
      "anonymous": false,
      "inputs": [
        {
          "indexed": true,
          "internalType": "bytes32",
          "name": "id",
          "type": "bytes32"
        }
      ],
      "name": "ChainlinkFulfilled",
      "type": "event"
    },
    {
      "anonymous": false,
      "inputs": [
        {
          "indexed": true,
          "internalType": "bytes32",
          "name": "id",
          "type": "bytes32"
        }
      ],
      "name": "ChainlinkRequested",
      "type": "event"
    },
    {
      "anonymous": false,
      "inputs": [
        {
          "indexed": true,
          "internalType": "address",
          "name": "from",
          "type": "address"
        },
        {
          "indexed": true,
          "internalType": "address",
          "name": "to",
          "type": "address"
        }
      ],
      "name": "OwnershipTransferRequested",
      "type": "event"
    },
    {
      "anonymous": false,
      "inputs": [
        {
          "indexed": true,
          "internalType": "address",
          "name": "from",
          "type": "address"
        },
        {
          "indexed": true,
          "internalType": "address",
          "name": "to",
          "type": "address"
        }
      ],
      "name": "OwnershipTransferred",
      "type": "event"
    },
    {
      "anonymous": false,
      "inputs": [
        {
          "indexed": true,
          "internalType": "bytes32",
          "name": "requestId",
          "type": "bytes32"
        },
        {
          "indexed": false,
          "internalType": "string",
          "name": "id",
          "type": "string"
        }
      ],
      "name": "RequestFirstId",
      "type": "event"
    },
    {
      "inputs": [],
      "name": "acceptOwnership",
      "outputs": [],
      "stateMutability": "nonpayable",
      "type": "function"
    },
    {
      "inputs": [],
      "name": "breakTheGlass",
      "outputs": [],
      "stateMutability": "nonpayable",
      "type": "function"
    },
    {
      "inputs": [
        {
          "internalType": "string",
          "name": "_teamName",
          "type": "string"
        }
      ],
      "name": "buyIn",
      "outputs": [],
      "stateMutability": "payable",
      "type": "function"
    },
    {
      "inputs": [],
      "name": "frontEndData",
      "outputs": [
        {
          "internalType": "uint256",
          "name": "",
          "type": "uint256"
        },
        {
          "internalType": "uint256",
          "name": "",
          "type": "uint256"
        },
        {
          "internalType": "string",
          "name": "",
          "type": "string"
        }
      ],
      "stateMutability": "view",
      "type": "function"
    },
    {
      "inputs": [
        {
          "internalType": "bytes32",
          "name": "_requestId",
          "type": "bytes32"
        },
        {
          "internalType": "string",
          "name": "_id",
          "type": "string"
        }
      ],
      "name": "fulfill",
      "outputs": [],
      "stateMutability": "nonpayable",
      "type": "function"
    },
    {
      "inputs": [],
      "name": "owner",
      "outputs": [
        {
          "internalType": "address",
          "name": "",
          "type": "address"
        }
      ],
      "stateMutability": "view",
      "type": "function"
    },
    {
      "inputs": [
        {
          "internalType": "uint256",
          "name": "",
          "type": "uint256"
        }
      ],
      "name": "playersThatHaveBought",
      "outputs": [
        {
          "internalType": "string",
          "name": "",
          "type": "string"
        }
      ],
      "stateMutability": "view",
      "type": "function"
    },
    {
      "inputs": [],
      "name": "requestFirstId",
      "outputs": [
        {
          "internalType": "bytes32",
          "name": "requestId",
          "type": "bytes32"
        }
      ],
      "stateMutability": "nonpayable",
      "type": "function"
    },
    {
      "inputs": [],
      "name": "retrieveWinnings",
      "outputs": [],
      "stateMutability": "nonpayable",
      "type": "function"
    },
    {
      "inputs": [],
      "name": "returnBoughtInPlayers",
      "outputs": [
        {
          "internalType": "string[]",
          "name": "",
          "type": "string[]"
        }
      ],
      "stateMutability": "view",
      "type": "function"
    },
    {
      "inputs": [
        {
          "internalType": "address",
          "name": "",
          "type": "address"
        }
      ],
      "name": "teamOwners",
      "outputs": [
        {
          "internalType": "string",
          "name": "",
          "type": "string"
        }
      ],
      "stateMutability": "view",
      "type": "function"
    },
    {
      "inputs": [],
      "name": "topPlayer",
      "outputs": [
        {
          "internalType": "string",
          "name": "",
          "type": "string"
        }
      ],
      "stateMutability": "view",
      "type": "function"
    },
    {
      "inputs": [
        {
          "internalType": "address",
          "name": "to",
          "type": "address"
        }
      ],
      "name": "transferOwnership",
      "outputs": [],
      "stateMutability": "nonpayable",
      "type": "function"
    },
    {
      "inputs": [],
      "name": "validatedWinnerCount",
      "outputs": [
        {
          "internalType": "uint256",
          "name": "",
          "type": "uint256"
        }
      ],
      "stateMutability": "view",
      "type": "function"
    },
    {
      "inputs": [],
      "name": "verifyWinner",
      "outputs": [],
      "stateMutability": "nonpayable",
      "type": "function"
    },
    {
      "inputs": [],
      "name": "withdrawLink",
      "outputs": [],
      "stateMutability": "nonpayable",
      "type": "function"
    }
  ],
  "bytecode": "0x608060405260016004556000600b553480156200001b57600080fd5b50338060008073ffffffffffffffffffffffffffffffffffffffff168273ffffffffffffffffffffffffffffffffffffffff16141562000092576040517f08c379a00000000000000000000000000000000000000000000000000000000081526004016200008990620003c7565b60405180910390fd5b81600660006101000a81548173ffffffffffffffffffffffffffffffffffffffff021916908373ffffffffffffffffffffffffffffffffffffffff160217905550600073ffffffffffffffffffffffffffffffffffffffff168173ffffffffffffffffffffffffffffffffffffffff16146200011a576200011981620001bf60201b60201c565b5b5050506200014273326c977e6efc84e512bb9c30f76e30c160ed06fb620002f160201b60201c565b620001677340193c8518bb267228fc409a613bdbd8ec5a97b36200033560201b60201c565b7f3764383061363338366566353433613361626235323831376636373037653362600c81905550600a670de0b6b3a76400006001620001a7919062000454565b620001b391906200041c565b600d819055506200056f565b3373ffffffffffffffffffffffffffffffffffffffff168173ffffffffffffffffffffffffffffffffffffffff16141562000231576040517f08c379a00000000000000000000000000000000000000000000000000000000081526004016200022890620003e9565b60405180910390fd5b80600760006101000a81548173ffffffffffffffffffffffffffffffffffffffff021916908373ffffffffffffffffffffffffffffffffffffffff1602179055508073ffffffffffffffffffffffffffffffffffffffff16600660009054906101000a900473ffffffffffffffffffffffffffffffffffffffff1673ffffffffffffffffffffffffffffffffffffffff167fed8889f560326eb138920d842192f0eb3dd22b4f139c87a2c57538e05bae127860405160405180910390a350565b80600260006101000a81548173ffffffffffffffffffffffffffffffffffffffff021916908373ffffffffffffffffffffffffffffffffffffffff16021790555050565b80600360006101000a81548173ffffffffffffffffffffffffffffffffffffffff021916908373ffffffffffffffffffffffffffffffffffffffff16021790555050565b6000620003886018836200040b565b915062000395826200051d565b602082019050919050565b6000620003af6017836200040b565b9150620003bc8262000546565b602082019050919050565b60006020820190508181036000830152620003e28162000379565b9050919050565b600060208201905081810360008301526200040481620003a0565b9050919050565b600082825260208201905092915050565b60006200042982620004b5565b91506200043683620004b5565b925082620004495762000448620004ee565b5b828204905092915050565b60006200046182620004b5565b91506200046e83620004b5565b9250817fffffffffffffffffffffffffffffffffffffffffffffffffffffffffffffffff0483118215151615620004aa57620004a9620004bf565b5b828202905092915050565b6000819050919050565b7f4e487b7100000000000000000000000000000000000000000000000000000000600052601160045260246000fd5b7f4e487b7100000000000000000000000000000000000000000000000000000000600052601260045260246000fd5b7f43616e6e6f7420736574206f776e657220746f207a65726f0000000000000000600082015250565b7f43616e6e6f74207472616e7366657220746f2073656c66000000000000000000600082015250565b612d8b806200057f6000396000f3fe6080604052600436106100f35760003560e01c80638dc654a21161008a578063e1b0a7ae11610059578063e1b0a7ae146102af578063e8dab114146102c6578063ecad00d614610303578063f2fde38b1461032e576100f3565b80638dc654a214610219578063a951a01314610230578063bb9510321461025b578063d3b374f314610298576100f3565b80636ebe71f8116100c65780636ebe71f81461017f57806379ba5097146101aa578063869dc532146101c15780638da5cb5b146101ee576100f3565b806309323a6a146100f85780631ba0b33e14610123578063374419961461013a5780634eacc4ba14610163575b600080fd5b34801561010457600080fd5b5061010d610357565b60405161011a91906122e9565b60405180910390f35b34801561012f57600080fd5b50610138610463565b005b34801561014657600080fd5b50610161600480360381019061015c9190611cee565b6104d7565b005b61017d60048036038101906101789190611d4a565b610638565b005b34801561018b57600080fd5b50610194610715565b6040516101a19190612304565b60405180910390f35b3480156101b657600080fd5b506101bf6107a3565b005b3480156101cd57600080fd5b506101d661093a565b6040516101e593929190612461565b60405180910390f35b3480156101fa57600080fd5b50610203610a7e565b60405161021091906121c0565b60405180910390f35b34801561022557600080fd5b5061022e610aa8565b005b34801561023c57600080fd5b50610245610c13565b6040516102529190612446565b60405180910390f35b34801561026757600080fd5b50610282600480360381019061027d9190611d93565b610c19565b60405161028f9190612304565b60405180910390f35b3480156102a457600080fd5b506102ad610cc5565b005b3480156102bb57600080fd5b506102c4610e1b565b005b3480156102d257600080fd5b506102ed60048036038101906102e89190611c94565b610ed2565b6040516102fa9190612304565b60405180910390f35b34801561030f57600080fd5b50610318610f72565b60405161032591906122c7565b60405180910390f35b34801561033a57600080fd5b5061035560048036038101906103509190611c94565b61104b565b005b60008061036e600c5430633744199660e01b61105f565b90506103d26040518060400160405280600381526020017f67657400000000000000000000000000000000000000000000000000000000008152506040518060a0016040528060698152602001612ced60699139836110909092919063ffffffff16565b6104516040518060400160405280600481526020017f70617468000000000000000000000000000000000000000000000000000000008152506040518060400160405280601e81526020017f7374616e64696e67732c726573756c74732c302c656e7472795f6e616d650000815250836110909092919063ffffffff16565b61045d81600d546110c3565b91505090565b6000600860003373ffffffffffffffffffffffffffffffffffffffff1673ffffffffffffffffffffffffffffffffffffffff16815260200190815260200160002080546104af906128ed565b9050116104bb57600080fd5b6001600b60008282546104ce91906125a2565b92505081905550565b816005600082815260200190815260200160002060009054906101000a900473ffffffffffffffffffffffffffffffffffffffff1673ffffffffffffffffffffffffffffffffffffffff163373ffffffffffffffffffffffffffffffffffffffff1614610579576040517f08c379a000000000000000000000000000000000000000000000000000000000815260040161057090612406565b60405180910390fd5b6005600082815260200190815260200160002060006101000a81549073ffffffffffffffffffffffffffffffffffffffff0219169055807f7cc135e0cebb02c3480ae5d74d377283180a2601f8f644edf7987b009316c63a60405160405180910390a2827f5b72487f892feba565865a27f191da8fb1e852651bd966bfb0a41fc272c54aea8360405161060c9190612304565b60405180910390a281600a908051906020019061062a929190611a91565b506000600b81905550505050565b67016345785d8a00003414610682576040517f08c379a000000000000000000000000000000000000000000000000000000000815260040161067990612386565b60405180910390fd5b6009819080600181540180825580915050600190039060005260206000200160009091909190915090805190602001906106bd929190611a91565b5080600860003373ffffffffffffffffffffffffffffffffffffffff1673ffffffffffffffffffffffffffffffffffffffff1681526020019081526020016000209080519060200190610711929190611a91565b5050565b600a8054610722906128ed565b80601f016020809104026020016040519081016040528092919081815260200182805461074e906128ed565b801561079b5780601f106107705761010080835404028352916020019161079b565b820191906000526020600020905b81548152906001019060200180831161077e57829003601f168201915b505050505081565b600760009054906101000a900473ffffffffffffffffffffffffffffffffffffffff1673ffffffffffffffffffffffffffffffffffffffff163373ffffffffffffffffffffffffffffffffffffffff1614610833576040517f08c379a000000000000000000000000000000000000000000000000000000000815260040161082a90612326565b60405180910390fd5b6000600660009054906101000a900473ffffffffffffffffffffffffffffffffffffffff16905033600660006101000a81548173ffffffffffffffffffffffffffffffffffffffff021916908373ffffffffffffffffffffffffffffffffffffffff1602179055506000600760006101000a81548173ffffffffffffffffffffffffffffffffffffffff021916908373ffffffffffffffffffffffffffffffffffffffff1602179055503373ffffffffffffffffffffffffffffffffffffffff168173ffffffffffffffffffffffffffffffffffffffff167f8be0079c531659141344cd1fd0a4f28419497f9722a3daafe3b4186f6b6457e060405160405180910390a350565b600080606060006109496110fa565b905060008173ffffffffffffffffffffffffffffffffffffffff166370a08231306040518263ffffffff1660e01b815260040161098691906121c0565b60206040518083038186803b15801561099e57600080fd5b505afa1580156109b2573d6000803e3d6000fd5b505050506040513d601f19601f820116820180604052508101906109d69190611dc0565b905060004790506000600a80546109ec906128ed565b80601f0160208091040260200160405190810160405280929190818152602001828054610a18906128ed565b8015610a655780601f10610a3a57610100808354040283529160200191610a65565b820191906000526020600020905b815481529060010190602001808311610a4857829003601f168201915b5050505050905082828296509650965050505050909192565b6000600660009054906101000a900473ffffffffffffffffffffffffffffffffffffffff16905090565b610ab0611124565b6000610aba6110fa565b90508073ffffffffffffffffffffffffffffffffffffffff1663a9059cbb338373ffffffffffffffffffffffffffffffffffffffff166370a08231306040518263ffffffff1660e01b8152600401610b1291906121c0565b60206040518083038186803b158015610b2a57600080fd5b505afa158015610b3e573d6000803e3d6000fd5b505050506040513d601f19601f82011682018060405250810190610b629190611dc0565b6040518363ffffffff1660e01b8152600401610b7f9291906121db565b602060405180830381600087803b158015610b9957600080fd5b505af1158015610bad573d6000803e3d6000fd5b505050506040513d601f19601f82011682018060405250810190610bd19190611cc1565b610c10576040517f08c379a0000000000000000000000000000000000000000000000000000000008152600401610c07906123c6565b60405180910390fd5b50565b600b5481565b60098181548110610c2957600080fd5b906000526020600020016000915090508054610c44906128ed565b80601f0160208091040260200160405190810160405280929190818152602001828054610c70906128ed565b8015610cbd5780601f10610c9257610100808354040283529160200191610cbd565b820191906000526020600020905b815481529060010190602001808311610ca057829003601f168201915b505050505081565b600a604051602001610cd79190612194565b60405160208183030381529060405280519060200120600860003373ffffffffffffffffffffffffffffffffffffffff1673ffffffffffffffffffffffffffffffffffffffff168152602001908152602001600020604051602001610d3c9190612194565b6040516020818303038152906040528051906020012014610d5c57600080fd5b6003600b541015610d6c57600080fd5b60003373ffffffffffffffffffffffffffffffffffffffff1647604051610d92906121ab565b60006040518083038185875af1925050503d8060008114610dcf576040519150601f19603f3d011682016040523d82523d6000602084013e610dd4565b606091505b5050905080610e18576040517f08c379a0000000000000000000000000000000000000000000000000000000008152600401610e0f90612426565b60405180910390fd5b50565b610e23611124565b60003373ffffffffffffffffffffffffffffffffffffffff1647604051610e49906121ab565b60006040518083038185875af1925050503d8060008114610e86576040519150601f19603f3d011682016040523d82523d6000602084013e610e8b565b606091505b5050905080610ecf576040517f08c379a0000000000000000000000000000000000000000000000000000000008152600401610ec6906123a6565b60405180910390fd5b50565b60086020528060005260406000206000915090508054610ef1906128ed565b80601f0160208091040260200160405190810160405280929190818152602001828054610f1d906128ed565b8015610f6a5780601f10610f3f57610100808354040283529160200191610f6a565b820191906000526020600020905b815481529060010190602001808311610f4d57829003601f168201915b505050505081565b60606009805480602002602001604051908101604052809291908181526020016000905b82821015611042578382906000526020600020018054610fb5906128ed565b80601f0160208091040260200160405190810160405280929190818152602001828054610fe1906128ed565b801561102e5780601f106110035761010080835404028352916020019161102e565b820191906000526020600020905b81548152906001019060200180831161101157829003601f168201915b505050505081526020019060010190610f96565b50505050905090565b611053611124565b61105c816111b6565b50565b611067611b17565b61106f611b17565b611086858585846112e5909392919063ffffffff16565b9150509392505050565b6110a782846080015161139590919063ffffffff16565b6110be81846080015161139590919063ffffffff16565b505050565b60006110f2600360009054906101000a900473ffffffffffffffffffffffffffffffffffffffff1684846113ba565b905092915050565b6000600260009054906101000a900473ffffffffffffffffffffffffffffffffffffffff16905090565b600660009054906101000a900473ffffffffffffffffffffffffffffffffffffffff1673ffffffffffffffffffffffffffffffffffffffff163373ffffffffffffffffffffffffffffffffffffffff16146111b4576040517f08c379a00000000000000000000000000000000000000000000000000000000081526004016111ab90612366565b60405180910390fd5b565b3373ffffffffffffffffffffffffffffffffffffffff168173ffffffffffffffffffffffffffffffffffffffff161415611225576040517f08c379a000000000000000000000000000000000000000000000000000000000815260040161121c906123e6565b60405180910390fd5b80600760006101000a81548173ffffffffffffffffffffffffffffffffffffffff021916908373ffffffffffffffffffffffffffffffffffffffff1602179055508073ffffffffffffffffffffffffffffffffffffffff16600660009054906101000a900473ffffffffffffffffffffffffffffffffffffffff1673ffffffffffffffffffffffffffffffffffffffff167fed8889f560326eb138920d842192f0eb3dd22b4f139c87a2c57538e05bae127860405160405180910390a350565b6112ed611b17565b6112fd8560800151610100611486565b508385600001818152505082856020019073ffffffffffffffffffffffffffffffffffffffff16908173ffffffffffffffffffffffffffffffffffffffff16815250508185604001907bffffffffffffffffffffffffffffffffffffffffffffffffffffffff191690817bffffffffffffffffffffffffffffffffffffffffffffffffffffffff191681525050849050949350505050565b6113a282600383516114f0565b6113b5818361167590919063ffffffff16565b505050565b60008060045490506001816113cf91906125a2565b6004819055506000634042994660e01b60008087600001513089604001518760018c6080015160000151604051602401611410989796959493929190612204565b604051602081830303815290604052907bffffffffffffffffffffffffffffffffffffffffffffffffffffffff19166020820180517bffffffffffffffffffffffffffffffffffffffffffffffffffffffff8381831617835250505050905061147b86838684611697565b925050509392505050565b61148e611b84565b600060208361149d919061297e565b146114c9576020826114af919061297e565b60206114bb91906127c3565b826114c691906125a2565b91505b81836020018181525050604051808452600081528281016020016040525082905092915050565b60178167ffffffffffffffff1611611527576115218160058460ff16901b60ff16178461183b90919063ffffffff16565b50611670565b60ff8167ffffffffffffffff161161157d57611556601860058460ff16901b178461183b90919063ffffffff16565b506115778167ffffffffffffffff1660018561185b9092919063ffffffff16565b5061166f565b61ffff8167ffffffffffffffff16116115d4576115ad601960058460ff16901b178461183b90919063ffffffff16565b506115ce8167ffffffffffffffff1660028561185b9092919063ffffffff16565b5061166e565b63ffffffff8167ffffffffffffffff161161162d57611606601a60058460ff16901b178461183b90919063ffffffff16565b506116278167ffffffffffffffff1660048561185b9092919063ffffffff16565b5061166d565b61164a601b60058460ff16901b178461183b90919063ffffffff16565b5061166b8167ffffffffffffffff1660088561185b9092919063ffffffff16565b505b5b5b5b505050565b61167d611b84565b61168f8384600001515184855161187d565b905092915050565b600030846040516020016116ac929190612168565b604051602081830303815290604052805190602001209050846005600083815260200190815260200160002060006101000a81548173ffffffffffffffffffffffffffffffffffffffff021916908373ffffffffffffffffffffffffffffffffffffffff160217905550807fb5e6e01e79f91267dc17b4e6314d5d4d03593d2ceee0fbb452b750bd70ea5af960405160405180910390a2600260009054906101000a900473ffffffffffffffffffffffffffffffffffffffff1673ffffffffffffffffffffffffffffffffffffffff16634000aea08685856040518463ffffffff1660e01b81526004016117a293929190612289565b602060405180830381600087803b1580156117bc57600080fd5b505af11580156117d0573d6000803e3d6000fd5b505050506040513d601f19601f820116820180604052508101906117f49190611cc1565b611833576040517f08c379a000000000000000000000000000000000000000000000000000000000815260040161182a90612346565b60405180910390fd5b949350505050565b611843611b84565b611853838460000151518461196c565b905092915050565b611863611b84565b6118748485600001515185856119c3565b90509392505050565b611885611b84565b825182111561189357600080fd5b846020015182856118a491906125a2565b11156118d9576118d88560026118c9886020015188876118c491906125a2565b611a51565b6118d39190612769565b611a6d565b5b6000808651805187602083010193508088870111156118f85787860182525b60208701925050505b6020841061193f578051825260208261191a91906125a2565b915060208161192991906125a2565b905060208461193891906127c3565b9350611901565b60006001856020036101000a03905080198251168184511681811785525050508692505050949350505050565b611974611b84565b8360200151831061199a5761199984600286602001516119949190612769565b611a6d565b5b83518051602085830101848153818614156119b6576001820183525b5050508390509392505050565b6119cb611b84565b846020015184836119dc91906125a2565b1115611a0457611a0385600286856119f491906125a2565b6119fe9190612769565b611a6d565b5b6000600183610100611a16919061264b565b611a2091906127c3565b90508551838682010185831982511617815281518588011115611a435784870182525b505085915050949350505050565b600081831115611a6357829050611a67565b8190505b92915050565b600082600001519050611a808383611486565b50611a8b8382611675565b50505050565b828054611a9d906128ed565b90600052602060002090601f016020900481019282611abf5760008555611b06565b82601f10611ad857805160ff1916838001178555611b06565b82800160010185558215611b06579182015b82811115611b05578251825591602001919060010190611aea565b5b509050611b139190611b9e565b5090565b6040518060a0016040528060008019168152602001600073ffffffffffffffffffffffffffffffffffffffff16815260200160007bffffffffffffffffffffffffffffffffffffffffffffffffffffffff1916815260200160008152602001611b7e611b84565b81525090565b604051806040016040528060608152602001600081525090565b5b80821115611bb7576000816000905550600101611b9f565b5090565b6000611bce611bc9846124c4565b61249f565b905082815260208101848484011115611bea57611be9612a70565b5b611bf58482856128ab565b509392505050565b600081359050611c0c81612c90565b92915050565b600081519050611c2181612ca7565b92915050565b600081359050611c3681612cbe565b92915050565b600082601f830112611c5157611c50612a6b565b5b8135611c61848260208601611bbb565b91505092915050565b600081359050611c7981612cd5565b92915050565b600081519050611c8e81612cd5565b92915050565b600060208284031215611caa57611ca9612a7a565b5b6000611cb884828501611bfd565b91505092915050565b600060208284031215611cd757611cd6612a7a565b5b6000611ce584828501611c12565b91505092915050565b60008060408385031215611d0557611d04612a7a565b5b6000611d1385828601611c27565b925050602083013567ffffffffffffffff811115611d3457611d33612a75565b5b611d4085828601611c3c565b9150509250929050565b600060208284031215611d6057611d5f612a7a565b5b600082013567ffffffffffffffff811115611d7e57611d7d612a75565b5b611d8a84828501611c3c565b91505092915050565b600060208284031215611da957611da8612a7a565b5b6000611db784828501611c6a565b91505092915050565b600060208284031215611dd657611dd5612a7a565b5b6000611de484828501611c7f565b91505092915050565b6000611df98383611ef3565b905092915050565b611e0a816127f7565b82525050565b6000611e1b8261251a565b611e258185612548565b935083602082028501611e37856124f5565b8060005b85811015611e735784840389528151611e548582611ded565b9450611e5f8361253b565b925060208a01995050600181019050611e3b565b50829750879550505050505092915050565b611e8e81612815565b82525050565b611e9d8161281f565b82525050565b6000611eae82612525565b611eb88185612559565b9350611ec88185602086016128ba565b611ed181612a7f565b840191505092915050565b611eed611ee882612875565b612950565b82525050565b6000611efe82612530565b611f088185612575565b9350611f188185602086016128ba565b611f2181612a7f565b840191505092915050565b6000611f3782612530565b611f418185612586565b9350611f518185602086016128ba565b611f5a81612a7f565b840191505092915050565b60008154611f72816128ed565b611f7c8186612597565b94506001821660008114611f975760018114611fa857611fdb565b60ff19831686528186019350611fdb565b611fb185612505565b60005b83811015611fd357815481890152600182019150602081019050611fb4565b838801955050505b50505092915050565b6000611ff1601683612586565b9150611ffc82612aaa565b602082019050919050565b6000612014602383612586565b915061201f82612ad3565b604082019050919050565b6000612037601683612586565b915061204282612b22565b602082019050919050565b600061205a601283612586565b915061206582612b4b565b602082019050919050565b600061207d602783612586565b915061208882612b74565b604082019050919050565b60006120a0601283612586565b91506120ab82612bc3565b602082019050919050565b60006120c360008361256a565b91506120ce82612bec565b600082019050919050565b60006120e6601783612586565b91506120f182612bef565b602082019050919050565b6000612109602883612586565b915061211482612c18565b604082019050919050565b600061212c601483612586565b915061213782612c67565b602082019050919050565b61214b8161286b565b82525050565b61216261215d8261286b565b612974565b82525050565b60006121748285611edc565b6014820191506121848284612151565b6020820191508190509392505050565b60006121a08284611f65565b915081905092915050565b60006121b6826120b6565b9150819050919050565b60006020820190506121d56000830184611e01565b92915050565b60006040820190506121f06000830185611e01565b6121fd6020830184612142565b9392505050565b60006101008201905061221a600083018b611e01565b612227602083018a612142565b6122346040830189611e85565b6122416060830188611e01565b61224e6080830187611e94565b61225b60a0830186612142565b61226860c0830185612142565b81810360e083015261227a8184611ea3565b90509998505050505050505050565b600060608201905061229e6000830186611e01565b6122ab6020830185612142565b81810360408301526122bd8184611ea3565b9050949350505050565b600060208201905081810360008301526122e18184611e10565b905092915050565b60006020820190506122fe6000830184611e85565b92915050565b6000602082019050818103600083015261231e8184611f2c565b905092915050565b6000602082019050818103600083015261233f81611fe4565b9050919050565b6000602082019050818103600083015261235f81612007565b9050919050565b6000602082019050818103600083015261237f8161202a565b9050919050565b6000602082019050818103600083015261239f8161204d565b9050919050565b600060208201905081810360008301526123bf81612070565b9050919050565b600060208201905081810360008301526123df81612093565b9050919050565b600060208201905081810360008301526123ff816120d9565b9050919050565b6000602082019050818103600083015261241f816120fc565b9050919050565b6000602082019050818103600083015261243f8161211f565b9050919050565b600060208201905061245b6000830184612142565b92915050565b60006060820190506124766000830186612142565b6124836020830185612142565b81810360408301526124958184611f2c565b9050949350505050565b60006124a96124ba565b90506124b5828261291f565b919050565b6000604051905090565b600067ffffffffffffffff8211156124df576124de612a3c565b5b6124e882612a7f565b9050602081019050919050565b6000819050602082019050919050565b60008190508160005260206000209050919050565b600081519050919050565b600081519050919050565b600081519050919050565b6000602082019050919050565b600082825260208201905092915050565b600082825260208201905092915050565b600081905092915050565b600082825260208201905092915050565b600082825260208201905092915050565b600081905092915050565b60006125ad8261286b565b91506125b88361286b565b9250827fffffffffffffffffffffffffffffffffffffffffffffffffffffffffffffffff038211156125ed576125ec6129af565b5b828201905092915050565b6000808291508390505b60018511156126425780860481111561261e5761261d6129af565b5b600185161561262d5780820291505b808102905061263b85612a9d565b9450612602565b94509492505050565b60006126568261286b565b91506126618361286b565b925061268e7fffffffffffffffffffffffffffffffffffffffffffffffffffffffffffffffff8484612696565b905092915050565b6000826126a65760019050612762565b816126b45760009050612762565b81600181146126ca57600281146126d457612703565b6001915050612762565b60ff8411156126e6576126e56129af565b5b8360020a9150848211156126fd576126fc6129af565b5b50612762565b5060208310610133831016604e8410600b84101617156127385782820a905083811115612733576127326129af565b5b612762565b61274584848460016125f8565b9250905081840481111561275c5761275b6129af565b5b81810290505b9392505050565b60006127748261286b565b915061277f8361286b565b9250817fffffffffffffffffffffffffffffffffffffffffffffffffffffffffffffffff04831182151516156127b8576127b76129af565b5b828202905092915050565b60006127ce8261286b565b91506127d98361286b565b9250828210156127ec576127eb6129af565b5b828203905092915050565b60006128028261284b565b9050919050565b60008115159050919050565b6000819050919050565b60007fffffffff0000000000000000000000000000000000000000000000000000000082169050919050565b600073ffffffffffffffffffffffffffffffffffffffff82169050919050565b6000819050919050565b600061288082612887565b9050919050565b600061289282612899565b9050919050565b60006128a48261284b565b9050919050565b82818337600083830152505050565b60005b838110156128d85780820151818401526020810190506128bd565b838111156128e7576000848401525b50505050565b6000600282049050600182168061290557607f821691505b6020821081141561291957612918612a0d565b5b50919050565b61292882612a7f565b810181811067ffffffffffffffff8211171561294757612946612a3c565b5b80604052505050565b600061295b82612962565b9050919050565b600061296d82612a90565b9050919050565b6000819050919050565b60006129898261286b565b91506129948361286b565b9250826129a4576129a36129de565b5b828206905092915050565b7f4e487b7100000000000000000000000000000000000000000000000000000000600052601160045260246000fd5b7f4e487b7100000000000000000000000000000000000000000000000000000000600052601260045260246000fd5b7f4e487b7100000000000000000000000000000000000000000000000000000000600052602260045260246000fd5b7f4e487b7100000000000000000000000000000000000000000000000000000000600052604160045260246000fd5b600080fd5b600080fd5b600080fd5b600080fd5b6000601f19601f8301169050919050565b60008160601b9050919050565b60008160011c9050919050565b7f4d7573742062652070726f706f736564206f776e657200000000000000000000600082015250565b7f756e61626c6520746f207472616e73666572416e6443616c6c20746f206f726160008201527f636c650000000000000000000000000000000000000000000000000000000000602082015250565b7f4f6e6c792063616c6c61626c65206279206f776e657200000000000000000000600082015250565b7f42757920696e206973203530204d415449430000000000000000000000000000600082015250565b7f596f7520617265206e6f7420746865206f776e6572206f66207468697320636f60008201527f6e74726163742100000000000000000000000000000000000000000000000000602082015250565b7f556e61626c6520746f207472616e736665720000000000000000000000000000600082015250565b50565b7f43616e6e6f74207472616e7366657220746f2073656c66000000000000000000600082015250565b7f536f75726365206d75737420626520746865206f7261636c65206f662074686560008201527f2072657175657374000000000000000000000000000000000000000000000000602082015250565b7f4661696c656420746f2073656e64204d41544943000000000000000000000000600082015250565b612c99816127f7565b8114612ca457600080fd5b50565b612cb081612809565b8114612cbb57600080fd5b50565b612cc781612815565b8114612cd257600080fd5b50565b612cde8161286b565b8114612ce957600080fd5b5056fe68747470733a2f2f6170692e616c6c6f726967696e732e77696e2f7261773f75726c3d68747470733a2f2f66616e746173792e7072656d6965726c65616775652e636f6d2f6170692f6c6561677565732d636c61737369632f3538333332362f7374616e64696e6773a2646970667358221220c63a3033ef89a6227473064becfa92badbfa2eeed5f5f833324e6aec0f5abfda64736f6c63430008070033",
  "linkReferences": {},
  "deployedLinkReferences": {}
}